{
  "contractName": "Storage",
  "abi": [
    {
      "inputs": [],
      "stateMutability": "nonpayable",
      "type": "constructor"
    },
    {
      "inputs": [],
      "name": "a",
      "outputs": [
        {
          "internalType": "uint8",
          "name": "",
          "type": "uint8"
        }
      ],
      "stateMutability": "view",
      "type": "function",
      "constant": true
    },
    {
      "inputs": [
        {
          "internalType": "uint256",
          "name": "",
          "type": "uint256"
        }
      ],
      "name": "aa",
      "outputs": [
        {
          "internalType": "uint256",
          "name": "",
          "type": "uint256"
        }
      ],
      "stateMutability": "view",
      "type": "function",
      "constant": true
    },
    {
      "inputs": [],
      "name": "b",
      "outputs": [
        {
          "internalType": "uint16",
          "name": "",
          "type": "uint16"
        }
      ],
      "stateMutability": "view",
      "type": "function",
      "constant": true
    },
    {
      "inputs": [
        {
          "internalType": "address",
          "name": "",
          "type": "address"
        }
      ],
      "name": "bb",
      "outputs": [
        {
          "internalType": "uint256",
          "name": "",
          "type": "uint256"
        }
      ],
      "stateMutability": "view",
      "type": "function",
      "constant": true
    },
    {
      "inputs": [],
      "name": "c",
      "outputs": [
        {
          "internalType": "address",
          "name": "",
          "type": "address"
        }
      ],
      "stateMutability": "view",
      "type": "function",
      "constant": true
    },
    {
      "inputs": [
        {
          "internalType": "uint256",
          "name": "",
          "type": "uint256"
        }
      ],
      "name": "cc",
      "outputs": [
        {
          "internalType": "uint256",
          "name": "",
          "type": "uint256"
        }
      ],
      "stateMutability": "view",
      "type": "function",
      "constant": true
    },
    {
      "inputs": [],
      "name": "e",
      "outputs": [
        {
          "internalType": "uint64",
          "name": "",
          "type": "uint64"
        }
      ],
      "stateMutability": "view",
      "type": "function",
      "constant": true
    },
    {
      "inputs": [],
      "name": "f",
      "outputs": [
        {
          "internalType": "uint256",
          "name": "",
          "type": "uint256"
        }
      ],
      "stateMutability": "view",
      "type": "function",
      "constant": true
    },
    {
      "inputs": [],
      "name": "g",
      "outputs": [
        {
          "internalType": "uint8",
          "name": "",
          "type": "uint8"
        }
      ],
      "stateMutability": "view",
      "type": "function",
      "constant": true
    },
    {
      "inputs": [],
      "name": "h",
      "outputs": [
        {
          "internalType": "uint256",
          "name": "",
          "type": "uint256"
        }
      ],
      "stateMutability": "view",
      "type": "function",
      "constant": true
    }
  ],
  "bytecode": "0x60806040526007600360006101000a81548160ff021916908360ff160217905550600a600360016101000a81548161ffff021916908361ffff16021790555073faaaa39456c95a05b3ef2cba3c0408ea53cd6ef26003806101000a81548173ffffffffffffffffffffffffffffffffffffffff021916908373ffffffffffffffffffffffffffffffffffffffff1602179055506001600360176101000a81548160ff021916908315150217905550600f600360186101000a81548167ffffffffffffffff021916908367ffffffffffffffff16021790555060c86004556028600560006101000a81548160ff021916908360ff16021790555061031560065534801561010a57600080fd5b506002600190806001815401808255809150506001900390600052602060002001600090919091909150556002600a908060018154018082558091505060019003906000526020600020016000909190919091505560026064908060018154018082558091505060019003906000526020600020016000909190919091505560046000806002815260200190815260200160002081905550600a60008060038152602001908152602001600020819055506064600160007372787509560814742c674664c83ed821b82eb98573ffffffffffffffffffffffffffffffffffffffff1673ffffffffffffffffffffffffffffffffffffffff16815260200190815260200160002081905550610507806102236000396000f3fe608060405234801561001057600080fd5b506004361061009e5760003560e01c8063c3da42b811610066578063c3da42b81461014b578063e1d9bbbd14610169578063e2179b8e14610199578063eb366c13146101b7578063ffae15ba146101e75761009e565b80630dbe671f146100a357806326121ff0146100c15780634df7e3d0146100df5780637323febe146100fd578063b8c9d3651461012d575b600080fd5b6100ab610205565b6040516100b891906102f9565b60405180910390f35b6100c9610218565b6040516100d6919061032d565b60405180910390f35b6100e761021e565b6040516100f49190610365565b60405180910390f35b610117600480360381019061011291906103b1565b610232565b604051610124919061032d565b60405180910390f35b61013561024a565b604051610142919061032d565b60405180910390f35b610153610250565b604051610160919061041f565b60405180910390f35b610183600480360381019061017e9190610466565b610274565b604051610190919061032d565b60405180910390f35b6101a161028c565b6040516101ae91906102f9565b60405180910390f35b6101d160048036038101906101cc91906103b1565b61029f565b6040516101de919061032d565b60405180910390f35b6101ef6102c3565b6040516101fc91906104b6565b60405180910390f35b600360009054906101000a900460ff1681565b60045481565b600360019054906101000a900461ffff1681565b60006020528060005260406000206000915090505481565b60065481565b60038054906101000a900473ffffffffffffffffffffffffffffffffffffffff1681565b60016020528060005260406000206000915090505481565b600560009054906101000a900460ff1681565b600281815481106102af57600080fd5b906000526020600020016000915090505481565b600360189054906101000a900467ffffffffffffffff1681565b600060ff82169050919050565b6102f3816102dd565b82525050565b600060208201905061030e60008301846102ea565b92915050565b6000819050919050565b61032781610314565b82525050565b6000602082019050610342600083018461031e565b92915050565b600061ffff82169050919050565b61035f81610348565b82525050565b600060208201905061037a6000830184610356565b92915050565b600080fd5b61038e81610314565b811461039957600080fd5b50565b6000813590506103ab81610385565b92915050565b6000602082840312156103c7576103c6610380565b5b60006103d58482850161039c565b91505092915050565b600073ffffffffffffffffffffffffffffffffffffffff82169050919050565b6000610409826103de565b9050919050565b610419816103fe565b82525050565b60006020820190506104346000830184610410565b92915050565b610443816103fe565b811461044e57600080fd5b50565b6000813590506104608161043a565b92915050565b60006020828403121561047c5761047b610380565b5b600061048a84828501610451565b91505092915050565b600067ffffffffffffffff82169050919050565b6104b081610493565b82525050565b60006020820190506104cb60008301846104a7565b9291505056fea2646970667358221220b6f05204411cc08ca854f2c6deacd476f4c87e60703620ea60d501033f45eab964736f6c63430008090033",
  "immutableReferences": {},
  "source": "// SPDX-License-Identifier: MIT\npragma solidity >=0.4.22 <0.9.0;\n\ncontract Storage {\n\n    // keccak256(key . slot)\n    mapping(uint => uint) public aa; // slot 0\n    mapping(address => uint) public bb; // slot 1\n\n    // keccak256(slot) + index of the item\n    uint[] public cc; // slot 2\n\n    uint8 public a = 7; // 1byte\n    uint16 public b = 10; // 2bytes\n    address public c = 0xfaAaa39456C95a05B3eF2CBA3C0408EA53Cd6ef2; // 20bytes\n    bool d = true; // 1byte\n    uint64 public e = 15; // 8bytes\n    // 32bytes, all values stored in slot 3\n    // Calling this slot returns (hex) of values in reverse order (space indication): '0x 0f 01 faaaa39456c95a05b3ef2cba3c0408ea53cd6ef2 000a 07'\n\n\n    uint256 public f = 200; //32bytes --> slot 4\n\n    uint8 public g = 40; // 1byte --> slot 5\n\n    uint256 public h = 789; //32bytes --> slot 6\n\n    constructor() {\n        cc.push(1);\n        cc.push(10);\n        cc.push(100);\n\n        aa[2] = 4;\n        aa[3] = 10;\n        bb [0x72787509560814742c674664c83ed821b82eb985] = 100;\n    }\n}\n\n// The key for aa[2] -> 0x0000000000000000000000000000000000000000000000000000000000000002 (for key value) + 0000000000000000000000000000000000000000000000000000000000000000 (for slot)\n// 0x00000000000000000000000072787509560814742c674664c83ed821b82eb9850000000000000000000000000000000000000000000000000000000000000001\n// Make sure to use a Keccak256 Hex dehash for the entire number above (128 characters)\n\n",
  "sourcePath": "/Users/filipjerga/Downloads/faucet-webpack-5/contracts/Storage.sol",
  "compiler": {
    "name": "solc",
    "version": "0.8.9+commit.e5eed63a.Emscripten.clang"
  },
  "schemaVersion": "3.4.9",
  "updatedAt": "2023-12-11T07:59:50.087Z",
  "networkType": "ethereum",
  "devdoc": {
    "kind": "dev",
    "methods": {},
    "version": 1
  },
  "userdoc": {
    "kind": "user",
    "methods": {},
    "version": 1
  }
}